:020000022000DC
:1060000000000420756302005D6302005F6302000C
:106010006163020063630200656302000000000028
:1060200000000000000000000000000067630200A4
:1060300069630200000000006B6302006D630200F0
:10604000A5D202006F630200FDDF02006F63020051
:106050006F6302006F63020015DD02006F630200D0
:106060006F6302006F6302006F6302006F630200E0
:106070006F6302006F6302006F6302006F630200D0
:106080006F630200E18502006F6302006F6302002C
:10609000218602006F630200098103006F63020022
:1060A0006F6302006F6302006F6302006F630200A0
:1060B0006F6302006F630200000000000000000038
:1060C0006F6302006F6302006F6302006F63020080
:1060D0006F6302006F6302006F6302006F63020070
:1060E0006F6302006F6302006F6302000000000034
:1060F000000000006F630200000000006F630200F8
:10610000000000000000000000000000000000008F
:10611000000000000000000000000000000000007F
:10612000000000000000000000000000000000006F
:10613000000000000000000000000000000000005F
:10614000000000000000000000000000000000004F
:10615000000000000000000000000000000000003F
:10616000000000000000000000000000000000002F
:10617000000000000000000000000000000000001F
:10618000000000000000000000000000000000000F
:1061900000000000000000000000000000000000FF
:1061A00000000000000000000000000000000000EF
:1061B00000000000000000000000000000000000DF
:1061C00000000000000000000000000000000000CF
:1061D00000000000000000000000000000000000BF
:1061E00000000000000000000000000000000000AF
:1061F000000000000000000000000000000000009F
:10620000354936480A1A02D0072291438D4634494F
:1062100034480A1A06D00722914381F309880222E2
:1062200082F3148830483149314A00F044F831484B
:106230003149324A00F03FF831483249324A00F0E1
:106240003AF832483249334A00F035F83248334997
:10625000334A00F030F833483349344A00F02BF821
:1062600033483449344A00F026F83448344900228F
:1062700000F02CF833483449002200F027F8334866
:106280003349091A082902DB002202604160314AC1
:1062900090471F481F49884205D00268043003B464
:1062A000904703BCF7E700208646EC46002000211B
:1062B000294A9047FEE7884207D0521A05D0037852
:1062C00001300B700131013AF9D17047884202D098
:1062D00002700130FAE770470000042000E003205C
:1062E00000000420000004200CCB0300342D00200B
:1062F000A02D0020D4630200D4630200448903006F
:106300000CCB0300342D0020342D0020AC8A030078
:10631000AC8A0300AC8A0300AC8A0300AC8A030099
:10632000AC8A0300AC8A0300AC8A03000ACB0300EA
:1063300078CB0300A02D0020A02D0020A02D002050
:1063400004410020044100200441002004410020B9
:10635000046100209D63020009F60200FEE7FEE7EB
:10636000FEE7FEE7FEE7FEE7FEE7FEE7FEE7FEE705
:10637000704700BF1048804710484FF0070188431E
:1063800085460F4880470F48016841F4700101605D
:10639000BFF34F8FBFF36F8FFFF732BF0A480B4930
:1063A0000B4A884207D0521A05D0037801300B708F
:1063B0000131013AF9D170477163020000000420F5
:1063C00075C4020088ED00E0988A0300202D0020AB
:0463D000342D002048
:1063D40000B585B00190019B002B0AD0074B43F018
:1063E40001030393019B9B010293039B029898472B
:1063F40000E000BF05B05DF804FB00BFC08A0300E5
:1064040000B583B00190019B002B0AD04FF47A7041
:10641400FFF7DEFF019B013B0193019B002BF5D1AC
:1064240000E000BF03B05DF804FB08B509F002FB0F
:1064340000BF08BD00B589B0039002910192019B91
:10644400002B33D00023079303230693029A079B60
:106454001344019A1946002009F064FA0590079A3A
:10646400059B13440793019A059BD31A0193059B3B
:10647400002B13D10F4B1B7883F00103DBB2002BED
:1064840013D10120FFF7BCFF069B013B0693069B3B
:10649400002B03D1074B00221A7007E0054B0122A1
:1064A4001A70019B002BD1D100E000BF00BF09B0DE
:1064B4005DF804FBA02D002000B585B00390029187
:1064C400054B00934023054A0299039800F012F803
:1064D40000BF05B05DF804FB39640200A42D002060
:1064E40082B0019000BF02B0704782B0019000BF3B
:1064F40002B0704700B5A1B00590049103920293D5
:10650400049805F03BFD039B1593029B169300230F
:10651400179300238DF8603000231993229B1A935C
:1065240000231F930FA91F9B0822049805F000FE67
:1065340008231F93119B1293BDF84030ADF84C30E3
:10654400BDF84230ADF84E3000238DF851309DF83F
:106554003C3003F00303DBB2012B26D10F9BC3F3C2
:1065640095231C939DF83C30C3F3C203DBB28DF832
:106574005030BDF83C30C3F38313DBB21B931B9B39
:106584009A0009A91F9B049805F0D2FD1B9B9B0050
:106594001F9A13441F9312AA09A915AB009313461B
:1065A4001B9A1C9800F0ECFE2FE09DF83C3003F0A1
:1065B4000303DBB2022B28D1BDF83E30C3F38913A9
:1065C4009BB21E939DF83C30C3F3C203DBB28DF83B
:1065D40050301E9B082B28BF08231D9307A91F9B1F
:1065E4001D9A049805F0A4FD1F9A1D9B13441F9344
:1065F4001E9A1D9BD31A1E9315AB12AA07A81D99A8
:1066040000F060FF1E9B002BE3D1049805F0C5FC4D
:1066140000BF21B05DF804FB82B00190019BDB68F0
:1066240001225A7100BF02B07047000000B583B068
:106634004FF0FF330193FFF7F8FE0421084800F000
:10664400B9FD0190019B002B03DA0649412008F0B3
:106654009BFA0348FFF7E0FF00BF03B05DF804FBBB
:10666400888A0300D88A030000B583B001900091A2
:10667400019B1B681B6800990198984700BF03B0F1
:106684005DF804FB00B583B00190019B1B685B6857
:106694000198984700BF03B05DF804FB00B583B0D0
:1066A4000190019B1B689B680198984700BF03B049
:1066B4005DF804FB82B001900B468DF80330019B1A
:1066C400DB689DF803201A7100BF02B0704782B0E6
:1066D4000190019BDB681B79184602B0704782B0B9
:1066E4000190019BDB6801225A7100BF02B0704720
:1066F40082B00190019BDB685B79184602B0704759
:1067040000B585B001900091154BFF229A60144B9F
:1067140000221A60124B00225A60114B0022C3F867
:1067240018240F4B0022C3F814240D4B002283F8C5
:1067340020240C4805F086FB0390039B002B01D01A
:10674400039B08E0084805F0B1FD084A084BD31A3A
:10675400DB0802930023184605B05DF804FB00BF74
:106764004C2F0020C4890300688B0300888A03002F
:10677400D8890300024A034BD31ADB081846704732
:10678400888A0300D889030000B587B001900B46BE
:106794008DF803309DF80330002B1FD0FFF7EAFF7C
:1067A40004900023059313E0059B9B000E4A1344B9
:1067B4000393039B1B881A46019B1B689A4204D1CE
:1067C400019B059A1A60002309E0059B0133059398
:1067D400059A049B9A42E7D3052300E00023184658
:1067E40007B05DF804FB00BF342D002000B585B070
:1067F40001900B468DF803309DF8032001AB114640
:106804001846FFF7C1FF0346002B07D1019BDB00AD
:10681400054A13440393039B1B6800E000231846B6
:1068240005B05DF804FB00BFD889030084B0019073
:106834000B468DF80330019BDB00174A1344029387
:106844009DF80330013B032B1CD801A252F823F01E
:10685400656802006D680200756802007F680200C6
:1068640002238DF80F3011E004238DF80F300DE072
:10687400029B1B798DF80F3008E0029B5B798DF841
:106884000F3003E000238DF80F3000BF9DF80F3068
:10689400184604B0704700BFD889030084B0019043
:1068A400009100238DF80F30019B1B7803F0040343
:1068B400DBB2002B24D0019B1B78C3F30103DBB2B2
:1068C400012B02D0022B0CD017E0009B1B68019A0D
:1068D4001288C2F38312D2B213449A1C009B1A602A
:1068E4000BE0009B1B68019A5288C2F3891292B292
:1068F40013449A1C009B1A6000BF01238DF80F30CB
:106904009DF80F30184604B07047000000B58BB0F6
:106914000023ADF826303E4804F0C6F83D4804F0A4
:10692400C3F83D4B5B6804933B4B9B680693049A06
:10693400069B134002339B00374A134404330893E5
:1069440004AB19460898FFF7A9FF0346002B09D0AA
:10695400049A069B134002339B002F4A13440433CA
:106964000893EDE700BF0023079311E0049B5A1C32
:106974000492069A1340079A920001A90A442649F0
:1069840002339B000B445B681360079B013307933E
:10699400079B012BEAD99DF80430C3F30103DBB252
:1069A400012B10D0022B1CD1BDF80A30ADF82630D3
:1069B400BDF80630C3F389139BB203339A08049BD2
:1069C4001344049313E0BDF80A30ADF82630BDF843
:1069D4000430C3F38313DBB21A46049B13440493B9
:1069E40005E00E494FF4BF7008F0CEF800BF094827
:1069F40004F066F80590059B002B02D0049B064A20
:106A04005360BDF8263018460BB05DF804FB00BF98
:106A140064330020603300204C2F0020788B030067
:106A240000B585B00021074803F073FF0390039B72
:106A34000293029B83F310030193019B184605B054
:106A44005DF804FB6833002000B589B0039002911F
:106A540001920093039B1B0C0793FFF7E1FF069041
:106A6400FFF788FE0246079B934204D3214940F274
:106A7400A31008F089F8069B1904009B5A1C0A9B72
:106A84001340079A0A431C4902339B000B445A6083
:106A9400009A0A9B134002339B00174A13440433A1
:106AA4000593039B03F00703D9B2059A137861F3A6
:106AB400C5031370019B03F00F03D9B2059A138821
:106AC40061F389131380029BC3F31501059A1368BC
:106AD40061F39F231360059A1378012161F3010385
:106AE4001370059A13786FF38203137000BF09B013
:106AF4005DF804FB788B03004C2F002000B58DB0AB
:106B04000390029113468DF80730039B02330A93D6
:106B140001238DF8273000238DF81B300DF11B0362
:106B2400184601F0ADFE404B1A68029B1A603E4BBA
:106B34009A683D4B59683C4B1B68CB1A134401338C
:106B44000B9314E00121394803F072FFFFF7DEFED6
:106B540007900799354803F06BFF334B9A68324B23
:106B64005968314B1B68CB1A134401330B930A9AAF
:106B74000B9B9A42E6D89DF82730002B48D000237F
:106B840005939DF80730002B17D09DF8143001228F
:106B940062F301038DF814309DF8143043F00403BC
:106BA4008DF81430039B03F00F03DAB2BDF81430F0
:106BB40062F38913ADF8143016E09DF81430022204
:106BC40062F301038DF814309DF8143043F004038C
:106BD4008DF81430039BC3F309039AB2BDF8163041
:106BE40062F38F13ADF816300F4B1A680E4B9B6887
:106BF400134002339B000C4A134404330893059A50
:106C0400089B1A60084B1A680A9B1344064A1360CF
:106C14009DF81B30184601F049FE9DF827301846B0
:106C24000DB05DF804FB00BF4C2F0020683300203A
:106C340000B58BB005900491039202931F4B9B689F
:106C4400079306AB012219460298FFF757FF034644
:106C5400002B24D0069B023309930023089311E0F0
:106C6400089B9B00039A1A44099B591C0991079994
:106C74000B401268114902339B000B445A60089B75
:106C840001330893089A029B9A42E9D3069A079B18
:106C940000931346029A04990598FFF7D5FE074B13
:106CA40093F82034002B05D000BF00F07BF8034696
:106CB400002BFAD100BF0BB05DF804FB4C2F002071
:106CC40000B583B00190009100230022009901983F
:106CD400FFF7AEFF00BF03B05DF804FB00B587B05B
:106CE400039002910192019B059305AA0123029945
:106CF4000398FFF79DFF00BF07B05DF804FB00B5E4
:106D040087B00390029101920093019B0493009B2E
:106D1400059304AA022302990398FFF789FF00BF91
:106D240007B05DF804FB00B589B0039002910192AD
:106D34000093019B0593009B06930A9B079305AA66
:106D4400032302990398FFF773FF00BF09B05DF8AE
:106D540004FB00B58BB00390029101920093019B58
:106D64000593009B06930C9B07930D9B08930E9B26
:106D7400099305AA052302990398FFF759FF00BF59
:106D84000BB05DF804FB0000054B5A68044B1B680C
:106D94009A420CBF01230023DBB21846704700BFA0
:106DA4004C2F002000B599B0FFF7EEFF0346002BEF
:106DB40001D00023BEE19B4B0022C3F81824BFF38B
:106DC4004F8F00BF974B5B680493964B9B6810935F
:106DD400049A109B134002339B00924A13440433D9
:106DE4001193002317930023169300230F9304ABEE
:106DF40019461198FFF752FD0346002B19D0894B11
:106E0400D3F81834002B14D1864B1A68049B9A4289
:106E140005D8844B1B68834A536000238AE1049A93
:106E2400109B134002339B007E4A13440433119396
:106E3400DDE70023159311E0049B5A1C0492109A79
:106E44001340159A920001A90A44764902339B0023
:106E54000B445B681360159B01331593159B012B41
:106E6400EAD99DF8043003F00303DBB2022B40F0AF
:106E74009C80BDF80630C3F389139BB20D93BDF813
:106E84000630C3F389139BB2502B28BF50239BB207
:106E94000C930C9BC3F309039AB2BDF8063062F35A
:106EA4008F13ADF806300C9B08330B939DF8043018
:106EB400C3F3C203DBB20F930B995B4804F0CDFF1D
:106EC4001790179B002B00F0D180179805F056F807
:106ED40001A9169B0822179805F00CF9169B083394
:106EE4001693049BDA43109B134001339B000A93CF
:106EF4000C9A0A9B9A4242D90A9B002B08D0049A06
:106F0400109B134002339B00464A1344043300E0B1
:106F1400464B08930A9B002B02D00A9BDBB201E08C
:106F24000C9BDBB28DF81F300A9B002B01D03F4B2A
:106F340000E0002306930A9B002B06D00C9BDAB2D8
:106F44000A9BDBB2D31ADBB200E000238DF81730C2
:106F54009DF81F20169B0899179805F0CBF89DF80B
:106F64001F30169A13441693069B002B16D09DF8D7
:106F74001720169B0699179805F0BCF80EE0049AA2
:106F8400109B134002339B00264A13440433099395
:106F9400169B0C9A0999179805F0ACF80D9B0333CE
:106FA4009A08049B1344049360E09DF8043003F0B2
:106FB4000303DBB2012B59D1BDF80430C3F38313AF
:106FC400DBB2062B28BF0623DAB2BDF8043062F325
:106FD4008913ADF80430BDF80430C3F38313DBB276
:106FE40002330E939DF80430C3F3C203DBB20F9354
:106FF4000E9B9B0019460C4804F02FFF1790179B1B
:10700400002B33D0179804F0B9FF01A9169B08226E
:10701400179805F06FF8169B083316930023159301
:107024001BE000BF4C2F0020C4890300582F002010
:10703400049B5A1C0492109A134002339B003F4A4B
:107044001344191D169B0422179805F053F8169B38
:1070540004331693159B01331593BDF80430C3F321
:107064008313DBB21A46159B9342E1D3179B002B83
:1070740040D0324BD3F810341493304BD3F8183437
:10708400002B1BD0179804F088FF4DE000238DF8E7
:107094004F301498FFF72CFB0346002B02D001233A
:1070A4008DF84F309DF84F30002B03D0179914986A
:1070B400FFF7DAFA149BDB681B681493149B002B0C
:1070C400E4D1179804F069FF00238DF803300DF123
:1070D4000303184601F0D4FB184BD3F81834002BE3
:1070E40002D1049B154A53609DF80330184601F001
:1070F400DDFB19E0114BD3F81034129306E012981B
:10710400FFF7CCFA129BDB681B681293129B002BCF
:10711400F5D10B4A0B4BD31ADB081B0443F00203D3
:1071240009491846FFF7CCFDFFF72EFE034683F00E
:107134000103DBB2184619B05DF804FB4C2F0020A4
:10714400008A0300D8890300008C030000B585B0D1
:107154000023039323E0164BD3F810340293012346
:107164008DF807300FE00298FFF7B1FA03461A468C
:10717400039B934203D100238DF8073006E0029B62
:10718400DB681B680293029B002BECD19DF807304F
:10719400002B01D0039B07E0039B01330393039B64
:1071A400092BD8DD4FF0FF33184605B05DF804FB1A
:1071B4004C2F002000B585B001900B468DF80330AC
:1071C400FFF7C4FF0390039BB3F1FF3F01D1039B7F
:1071D40022E0039BDBB219460198FFF76BFA104BD0
:1071E400D3F81034002B08D10D4A019BC2F8103497
:1071F400019BDB6800221A600DE0094BD3F81034C0
:10720400DA68019BDB6812681A60054BD3F8103406
:10721400DB68019A1A60039B184605B05DF804FB0D
:107224004C2F002000B583B00D4BD3F810340193DC
:107234000B4B012283F8202409E00198FFF74FFA51
:107244000198FFF71FFA019BDB681B680193019B00
:10725400002BF2D100BF00BF03B05DF804FB00BFF8
:107264004C2F002082B00190009100BF02B0704703
:1072740010B584B003900291039BDB88002B0AD0E5
:10728400039BDB881A461F4B009313461E4A1F4973
:10729400029803F051FD039B1B7A052B2ED0039B10
:1072A4005B7A002B12D0039B9B881A46039B1B7AA4
:1072B40019461046FFF7BAFA03461A46144B53F818
:1072C40022301A461349029803F036FD039B1B68CB
:1072D40019460298FFF7C6FF039B1B7A1A460E4B0A
:1072E40053F82240039B9B8800211846FFF77EFA3F
:1072F400034622460949029803F01EFD00BF04B06C
:1073040010BD00BF348C0300448C03007C8C03004C
:10731400502D0020948C03003C2D0020988C0300F9
:1073240000B585B00390029113468DF80730039B96
:107334001B7A052B0FD0039B5B7A002B06D00D4BD9
:107344001B681A460C49029803F0F6FC0B49029894
:1073540003F0F2FC07E09DF80730002B03D0074947
:10736400029803F0E9FC029803F0C4FC00BF05B0E6
:107374005DF804FB502D0020948C0300A48C0300C2
:1073840030B58BB007900691059204930E9B1B7B3E
:107394008DF827300E9B00221A730E990498FFF77C
:1073A40067FF059B062B7FD801A252F823F000BF8C
:1073B400D1730200DB730200EB730200FF7302005F
:1073C4001D740200457402007574020007990E983A
:1073D40003F0B2FC69E0069B1B681A4607990E98F5
:1073E40003F0AAFC61E0069B1A68069B04331B6841
:1073F40007990E9803F0A0FC57E0069B1A68069BB9
:1074040004331968069B08331B6800930B460799DD
:107414000E9803F091FC48E0069B1968069B043320
:107424001868069B08331B68069A0C32126801928E
:10743400009303460A4607990E9803F07DFC34E056
:10744400069B1868069B04331C68069B08331B685C
:10745400069A0C3212680699103109680291019259
:1074640000932346024607990E9803F065FC1CE03E
:10747400069B1C68069B04331D68069B08331B6827
:10748400069A0C321268069910310968069814306D
:10749400006803900291019200932B4622460799BB
:1074A4000E9803F049FC00E000BF00220E990498F6
:1074B400FFF736FF0E9B9DF827201A7300BF0BB011
:1074C40030BD00BF00B587B00390029101920093D4
:1074D400029B082B60D8009B1B7B8DF81330009B0C
:1074E40000221A7300990198FFF7C2FE0023059346
:1074F40014E0059A029B9A4209D2039A059B13440D
:107504001B781A462649009803F016FC03E0254927
:10751400009803F011FC059B01330593059B072B91
:10752400E7D92149009803F007FC0023059326E0DE
:10753400059A029B9A421BD2039A059B13441B781B
:107544008DF812309DF812307E2B0AD89DF8123037
:10755400184611F00FF90346002B02D09DF81230A3
:1075640000E02E231A461149009803F0E5FB03E0DE
:107574000F49009803F0E0FB059B01330593059B3D
:10758400072BD5D9012200990198FFF7C9FE009B6A
:107594009DF813201A7300E000BF07B05DF804FBE8
:1075A400A88C0300B08C0300B48C0300B88C0300D7
:1075B400BC8C03002DE9F04F93B0099000238DF8A3
:1075C4004730AAE05B4B1A689DF84730DB00134450
:1075D4001093109B1B781C464FF001024FF00003E0
:1075E400A4F12001C4F1200003FA04FB02FA01F122
:1075F4004BEA010B22FA00F04BEA000B02FA04FA00
:10760400CDE90EAB4C4BD3E90001DDE90E2300EAD2
:10761400020400940B400193DDE90034234377D046
:10762400DDE90E23D1430291DB430393424BD3E9BB
:107634000023DDE9024521461140049129460B400F
:1076440005933D4BDDE90412C3E90012109B1B783E
:10765400184606F043FB03468DF83730109B1B7821
:107664001C464FF001024FF00003A4F12001C4F1C5
:10767400200003FA04F702FA01F10F4322FA00F0A2
:10768400074302FA04F62D4BD3E9002306EA02016C
:1076940006913B4007939DF837004FF00001109B83
:1076A4001B781C46A4F12003C4F1200201FA04F95A
:1076B40000FA03F349EA030920FA02F249EA02094B
:1076C40000FA04F8DDE906344C4508BF43451FD1F0
:1076D4009DF83720109B5B78012B0CBF01230023FE
:1076E400DBB29A420CBF01230023DBB2DAB24FF0C3
:1076F4000003CDE90A23109B5B68002B08D0109B84
:107704005C68109B1A789DF8283019461046A047EB
:107714009DF8473001338DF84730094B1A789DF8AE
:1077240047309342FFF44EAF00BF00BF13B0BDE833
:10773400F08F00BF70330020A8330020A033002056
:10774400743300202DE9704F90B00B900B468DF8E8
:107754002B304FF001024FF000030B9EA6F12001E5
:10776400C6F1200003FA06F502FA01F10D4322FAEC
:1077740000F0054302FA06F4CDE90E45384B1846ED
:1077840000F0E8FF0D900D9B002B64D1354BD3E93D
:107794000001DDE90E2300EA020400940B4001938A
:1077A400DDE90034234341D10B9806F097FA0346F0
:1077B400002B0FD02C4BD3E90001DDE90E2340EA66
:1077C400020402940B430393274BDDE90212C3E93D
:1077D400001213E0DDE90E236FEA020A6FEA030BDD
:1077E400214BD3E900230AEA020104910BEA0303C3
:1077F40005931D4BDDE90412C3E90012194BD3E9CB
:107804000001DDE90E2340EA020406940B430793CA
:10781400144BDDE90612C3E900121148134B1B682F
:107824000022194600F064FF0D9015E0DDE90E23F7
:107834006FEA02086FEA03090A4BD3E9002308EA56
:107844000201089109EA03030993064BDDE90812D2
:10785400C3E9001200E000BF10B0BDE8708F00BFA4
:107864007C330020A8330020A0330020783300208C
:1078740000B58BB003900B4601928DF80B30019B41
:10788400042B01D807235AE006F01AF9034683F0C3
:107894000103DBB2002B09D006F0C0F80990099B64
:1078A4000893089B002B01D0089B48E0264A039BC1
:1078B4001360264A9DF80B301370254A019B136010
:1078C40024494FF000024FF00003C1E9002322498C
:1078D4004FF000024FF00003C1E9002322E09DF8BD
:1078E4000B30DB00039A1344079305AB00210A46CF
:1078F4001A800A469A7003238DF81430079B9B78EC
:107904008DF81530079B1B78184605AB134A1946AA
:1079140006F0E2F80990099B0693069B002B01D020
:10792400069B0CE09DF80B305A1E8DF80B20002BA3
:10793400D5D10B4A00210B4800F0AAFE0346184695
:107944000BB05DF804FB00BF7033002074330020DB
:1079540078330020A0330020A833002049770200A8
:10796400B9750200C08C030000B583B0114B1B68CD
:10797400002B03D11049BA2007F006F90023019324
:107984000CE00C4B1A68019BDB0013441B780121AB
:10799400184606F01BF9019B01330193074B1B7832
:1079A4001A46019B9342ECD30023184603B05DF8BA
:1079B40004FB00BF70330020C48C03007433002028
:1079C40086B003900291019201238DF817309DF83F
:1079D4001730214A039B13601F4A029B53601E4ABF
:1079E400019B9360039B44F20102934213D0039BD7
:1079F40044F20202934221D1019B174AD360164BF1
:107A0400DB681B881A46144B9A61134BDB685B686E
:107A1400114AD36112E0019B0F4A13610E4B1B699B
:107A24009B680D4A53610C4B1B691B680A4A93619E
:107A3400094B1B695B68084AD36100BF72B600BF7B
:107A440000BF9DF81730DBB2002BFAD162B600BF3D
:107A540000BF06B0704700BFB033002000B583B04C
:107A640002900091019244F2010071466A4600F0CE
:107A740003F803B000BD00BF30B58BB0079006918A
:107A8400059272B600BFFFF7CDFB00BFFFF78AF97E
:107A94000346002BFAD1079B44F2020293422FD0F3
:107AA400079B44F20202934269D8079B44F2010205
:107AB400934237D0079B44F2010293425FD8079B5D
:107AC400012B05D0079B41F2010293420CD056E0F2
:107AD400394A3A4BD31ADB081B0443F001033849F3
:107AE4001846FFF7EDF857E0334A344BD31ADB0856
:107AF4001B0443F0010333491846FFF7E1F84BE058
:107B0400059B09932C4A2D4BD31ADB081B0443F025
:107B14000100099B5B681A46099B1B882A49FFF7E9
:107B2400EEF839E0059B0893234A244BD31ADB086B
:107B34001B0443F00104089B9D68089B9B6818463E
:107B440004F02EFC03461846089B5B681946089B04
:107B54001B68069A02920193009103462A461B4928
:107B64002046FFF7F6F8144A144BD31ADB081B041B
:107B740043F0010316491846FFF7A2F80CE00E4A39
:107B84000E4BD31ADB081B0443F00103069A114978
:107B94001846FFF7A3F800BF0F4B1B6803F001035F
:107BA400002B00D000BE059A06990798FFF708FF3E
:107BB40000BF0BB030BD00BF008A0300D8890300AA
:107BC400488D0300688D03008C8D0300A88D03008D
:107BD400D08D0300E48D0300F0ED00E082B0034695
:107BE4008DF807309DF8073003F01F0205499DF911
:107BF40007305B09012000FA02F241F8232000BF9C
:107C040002B0704700E100E082B003468DF807300F
:107C14009DF8073003F01F0206499DF907305B0900
:107C2400012000FA02F2203341F8232000BF02B001
:107C3400704700BF00E100E082B003468DF80730D2
:107C44009DF8073003F01F0206499DF907305B09D0
:107C5400012000FA02F2403341F8232000BF02B0B1
:107C6400704700BF00E100E082B003468DF80730A2
:107C74009DF8073003F01F0206499DF907305B09A0
:107C8400012000FA02F2603341F8232000BF02B061
:107C9400704700BF00E100E082B0034600918DF818
:107CA40007309DF90730002B0CDA009BDAB20C493F
:107CB4009DF8073003F00F03043B5201D2B20B448A
:107CC4001A7609E0009BDAB206499DF907305201A1
:107CD400D2B20B4483F8002300BF02B0704700BF48
:107CE40000ED00E000E100E000B585B00190019BEB
:107CF400002B0AD0074B43F001030393019B9B0124
:107D04000293039B0298984700E000BF05B05DF81A
:107D140004FB00BF008E030000B583B00190064A47
:107D2400019BC2F8083506211120FFF7B5FF00BFFB
:107D340003B05DF804FB00BF0010014008B50D4B13
:107D44004FF48032C3F844230A4B4FF48032C3F813
:107D540004231120FFF788FF1120FFF73FFF054B95
:107D640001221A602F20FFF7BFFF034B01221A7074
:107D740000BF08BD00100140EE34002008B51120FA
:107D8400FFF742FF0E4B4FF48032C3F848230C4BED
:107D94004FF48032C3F80823094B01225A602F2084
:107DA400FFF7A2FF064B01229A60064B00221A60DD
:107DB4002F20FFF799FF044B00221A7000BF08BD63
:107DC40000100140E0340020EE340020024BD3F8D0
:107DD40004351846704700BF0010014082B001907E
:107DE4000091019A009BD31A23F07F43184602B0F6
:107DF4007047000082B00190034A019BC2F84035ED
:107E040000BF02B0704700BF0010014086B001906F
:107E1400284B1B68002B03D1264A019B136045E0C5
:107E2400019B1A68234B1B681B689A4210D8214B8C
:107E34001B681968019B1A681E4B1B688A1A1A6012
:107E44001C4B1A68019BDA611A4A019B13602DE0EE
:107E5400019B1B680393174B1B680593154B1B6809
:107E6400049309E0049B1B68039AD31A0393049BAD
:107E74000593049BDB690493049B002B04D0049BAF
:107E84001B68039A9A42EDD8049B002B05D0049BEF
:107E94001A68039BD21A049B1A60019B039A1A6006
:107EA400019B049ADA61059B019ADA6100BF06B06E
:107EB400704700BFDC34002000B587B001902A4B26
:107EC4001B680393284B1B680593059B049308E0E8
:107ED400049A019B9A4208D0049B0593049BDB6996
:107EE4000493049B002BF3D100E000BF049B002B00
:107EF40001D1002333E0059A049B9A4214D11A4B12
:107F04001B68DB69184A1360174B1B68002B0BD1E5
:107F1400164B01229A60164B00221A60154B01225F
:107F24001A702F20FFF7E0FE049B1B680293049B4A
:107F3400DA69059BDA61059BDB690493049B002BDA
:107F440005D0049B1A68029B1A44049B1A60064BD2
:107F54001B68039A9A4214BF01230023DBB218461C
:107F640007B05DF804FB00BFDC34002000100140C2
:107F7400E0340020EF34002008B51120FFF75CFE48
:107F840000BF08BD08B51420FFF756FE00BF08BDAA
:107F940000B583B00190019B5B69019A9269104618
:107FA400984700BF03B05DF804FB000000B585B03E
:107FB4002B4B1B68002B4ED000230193FFF706FFC9
:107FC4000246284B1B6819461046FFF707FF02902C
:107FD400234B1B6803931DE0039B1B68029A9A4280
:107FE4001CD3039B1B68029AD31A0293039B1B683E
:107FF400019A13440193039B0093039BDB6903934E
:10800400009B1B7C002B05D0009B00221A74009857
:10801400FFF7BEFF039B002BDED100E000BF124B35
:108024001A78124B1B789A420CD1104B1B780133EF
:10803400DAB20E4B1A700D4B1B78022B02D10B4B8C
:1080440000221A70094B1B781946094A019B42F811
:108054002130FFF797FF00BF05B05DF804FB00BFB8
:10806400DC340020E0340020EC340020ED34002027
:10807400E434002082B00190184B1A78184B1B7816
:108084009A4223D0154B1B780133DAB2134B1A7082
:10809400124B1B78022B02D1104B00221A700F4B8B
:1080A4001B781A460F4B53F82220019B1A60019B40
:1080B4001A680D4B1B6813440B4A13600A4B1B6868
:1080C40023F07F43084A1360012303E0019B00224D
:1080D4001A600023184602B0704700BFEC34002039
:1080E400ED340020E4340020E034002088B0039014
:1080F400029101920023079338E0204B1B680693FA
:10810400069B1B68039A9A4206D2069B1A68039B35
:10811400D21A069B1A602EE0069B1B68039AD31A98
:108124000393069B1B68079A13440793069B00223C
:108134001A60124B1B680593069BDB690F4A136098
:10814400069BDB68002B11D0029A079B134423F093
:108154007F42069B5A60069BDA68069B9A60019BE5
:108164001A68069BDA61019B059A1A60034B1B6827
:10817400002BC2D100BF00BF08B07047DC34002020
:1081840000B589B0019000238DF81F30664B1B6841
:108194000593AAE0019B002B05D0019B0693069B47
:1081A400DB69019361E0614B1B781A4613465B005F
:1081B4001344DB005D4A1344043304935B4B1B7884
:1081C4000133DAB2594B1A70584B1A78574B9B78D3
:1081D4009A4202D1554B00221A70049B5B680693A5
:1081E400049B1B78032B1ED0032B7EDC012B1FD09A
:1081F400022B7AD1049B5B681846FFF75DFE0346A9
:10820400002B02D001238DF81F30069B00221A7424
:108214006BE0454B1B680393039B00221A74039B7A
:10822400DB69414A1360404B1B68002BF1D15CE0D1
:1082340000BF069B1B7C002B00D056E0049B9A6871
:10824400069B5A60049BDA68069B9A60049B1A6931
:10825400069BDA60049B5A69069B9A61344B1B782F
:10826400002B02D0069B00225A60069B5A68314BB1
:108274001B68D31A23F07F432F4A93420ED8069BE0
:108284005B682C4A126811461846FFF7A7FD0246A0
:10829400069B9B681A44069B1A6017E0254B1A68D4
:1082A400069B5B6819461046FFF798FD0290069BF3
:1082B4009B68029A9A4206D2069B9A68029BD21A3B
:1082C400069B1A6002E0069B00221A60069B0022AD
:1082D4005A60069B00229A60069B01221A74069B30
:1082E4000022DA610698FFF791FD019B002B7FF4D1
:1082F40051AF0E4B1A780D4B5B789A427FF44AAF1C
:108304009DF81F30002B04D1074B1B68059A9A4235
:1083140001D0012300E0002303F00103DBB218467F
:1083240009B05DF804FB00BFDC340020D03300202A
:10833400EF340020E0340020FEFF7F0010B588B049
:108344000190274B1B68002B44D0254B1B681B68EE
:108354000793FFF73BFD0690224B1B680593059995
:108364000698FFF73BFD0346033304931E4B1B782B
:1083740083F00103DBB2002B01D0FFF7DFFC049A8A
:10838400079B934238BF1346059A13440593059BF4
:1083940023F07F4305930598FFF72CFDFFF716FDA7
:1083A400039006990398FFF719FD0346DC1C069910
:1083B4000598FFF713FD03469C420DD9FFF706FD10
:1083C40003461846FFF716FD2F20FFF78DFCFFF735
:1083D400D3FD01E0FFF7D2FC00BF08B010BD00BF21
:1083E400DC340020E0340020EE34002000B587B0F7
:1083F4000023019300238DF81730194B1B68049355
:10840400184B1B6803936B461846FFF733FE03466D
:108414008DF80B309DF80B30002B08D0009B01AA7F
:1084240004991846FFF762FE01238DF81730019B6B
:108434001846FFF7A5FE0346002B02D001238DF852
:1084440017309DF81730002B02D00398FFF776FF02
:10845400054B00221A7000BF07B05DF804FB00BF93
:10846400E0340020DC340020EF34002082B00346E6
:108474008DF80730034A9DF80730537000BF02B0EF
:10848400704700BFD033002084B00190144B5B7858
:1084940001338DF80F30124B9B789DF80F209A42D0
:1084A40002D100238DF80F300D4B1B789DF80F205F
:1084B4009A4201D100230FE0019B9DF80F201A700E
:1084C400074B5B781A4613465B001344DB00044AEF
:1084D400134404330293029B184604B0704700BF50
:1084E400D033002000B589B003900291019200932B
:1084F4000023079300238DF816300DF11603184658
:1085040000F0BEF90DF117031846FFF7BDFF069002
:10851400069B002B02D10423079318E0069B01223B
:108524001A70069B039A5A60FFF750FC0246069B9A
:108534009A60069B029ADA60069B019A1A61069B6E
:10854400009A5A619DF817301846FFF78FFF9DF87F
:108554001630184600F0AAF9079B002B01D1FFF74B
:1085640011FD079B184609B05DF804FB00B587B000
:1085740001900B468DF803300023059300238DF8FA
:108584000E300DF10E03184600F07AF90DF10F03C9
:108594001846FFF779FF0490049B002B02D10423B3
:1085A40005930BE0049B9DF803201A70049B019A29
:1085B4005A609DF80F301846FFF758FF9DF80E30AB
:1085C400184600F073F9059B002B01D1FFF7DAFC84
:1085D400059B184607B05DF804FB000008B50E4B78
:1085E4000022C3F840210C4B0022C3F844210A4B5B
:1085F4000022C3F84821084B0022C3F84C21064B43
:108604000022C3F80021044B0022C3F80421FFF721
:10861400CDFC00BF08BD00BF0010014008B5FFF746
:10862400E5FE00BF08BD000008B5FFF7A7FB134B2C
:1086340000221A70114B00225A70104B0B229A70B0
:108644000F4B00221A600F4B00221A700E4B0022AF
:108654001A701420FFF708FB06211420FFF71CFBF7
:108664001420FFF7BBFA0020FFF756FBFFF7AEFB21
:108674000346064A13600023184608BDD033002081
:10868400DC340020EC340020ED340020E034002001
:1086940086B003900B4601928DF80B30134B9B78F8
:1086A400002B01D108231EE0019B002B01D10723DD
:1086B40019E0039B002B01D1072314E0039B1B68E3
:1086C4001B7C002B01D008230DE0039B1B68059342
:1086D400059B00221A74059B9DF80B205A74059B78
:1086E400019A5A610023184606B07047D03300201F
:1086F40000B587B0039002910192039B0593144B3C
:108704009B78002B01D108231EE0039B002B01D191
:10871400082319E0029B042B01D8072314E0059BCE
:108724005B69002B01D108230EE0059B5B7C012BC8
:1087340001D1029B00E000230493019B049A029957
:108744000598FFF7CFFE0346184607B05DF804FB13
:10875400D033002000B585B00190019B03930D4BED
:108764009B78002B01D1082310E0019B002B03D040
:10877400039B5B69002B01D1082307E0039B0022C4
:108784001A7402210398FFF7F1FE0346184605B058
:108794005DF804FBD033002082B0EFF31083009324
:1087A400009B019372B600BF019B184602B070474C
:1087B40062B600BF00BF704700B585B00190FFF7F7
:1087C400EBFF0390164B9B68002B1BD1144B01222B
:1087D4009A60144BD3F88020134B1340104A136053
:1087E400104B114AC3F880200E4BD3F884300C4A46
:1087F40053600C4B4FF0FF32C3F88420019B0022DE
:108804001A7002E0019B01221A70039B002B01D114
:10881400FFF7CEFF0023184605B05DF804FB00BF48
:10882400F034002000E100E0FC06FFBD00B585B097
:1088340003468DF80730104B9B68002B16D09DF82B
:108844000730002B12D1FFF7A7FF03900B4A0A4B06
:108854001B681360094A084B5B685360064B00228F
:108864009A60039B002B01D1FFF7A2FF0023184657
:1088740005B05DF804FB00BFF034002000E100E027
:1088840000B583B0019000F02BF80346012B03D010
:108894000549432006F078F90198FFF78DFF00BFE2
:1088A40003B05DF804FB00BF088E030000B583B07D
:1088B40003468DF8073000F013F80346012B03D06C
:1088C4000649512006F060F99DF807301846FFF775
:1088D400ADFF00BF03B05DF804FB00BF088E0300CA
:1088E40084B0EFF305830193019BC3F3080303935F
:1088F400039B002B0DD1EFF314830093009B029391
:10890400029B03F00103002B0CBF01230023DBB205
:1089140000E00123184604B0704782B00190019B27
:1089240003F00303002B0CBF01230023DBB2184622
:1089340002B0704700B585B00190002303930EE0A8
:108944000B4A039B52F82330002B05D0084A039BA3
:1089540052F8233001989847039B01330393039BF8
:10896400032BEDD900BF00BF05B05DF804FB00BFC9
:108974000C35002082B001900091019B1B78013BD3
:10898400052B61D801A252F823F000BFA989020087
:10899400B1890200D7890200098A0200298A0200EB
:1089A400458A0200009B00221A704EE0009B0122BF
:1089B4001A70019B1A89009B9A81019B9A88009BDB
:1089C400DA81019BDA68009B9A60009B00221A748A
:1089D4003BE0009B02221A70019B1A89009B9A813A
:1089E400019B9A88009BDA81019BDA68009B9A605C
:1089F400019B9B7D062B0CBF01230023DAB2009B55
:108A04001A7422E0009B03221A70019BDA88009BEF
:108A14009A81019B1A89009BDA81019BDA68009B89
:108A24009A6012E0009B04221A70019BDA88009B72
:108A34009A81009B0022DA81009B00229A6004E064
:108A4400009B05221A7000E000BF00BF02B070470F
:108A540084B001900091019B0393039A009B9A4276
:108A640006D2039B1B68B3F1FF3F01D0012300E052
:108A7400002303F00103DBB2184604B0704782B050
:108A84000190019B5B8803339B00019A13441846B1
:108A940002B0704700B583B0019000910198FFF7D0
:108AA400EEFF0246009B934201D202230CE0019B9D
:108AB4009B884FF6FF72934203D0019B1B88002BC7
:108AC40001D1012300E00023184603B05DF804FB44
:108AD40000B583B00190019B002B13D00D4BDB68D4
:108AE4001A46019B93420DD30A4B1B691A46019BFC
:108AF400934207D80198FFF710FF0346002B01D0DB
:108B0400012300E0002303F00103DBB2184603B0A5
:108B14005DF804FB202D002082B00190019B002B06
:108B240004D0019B1B680B4A934201D003230DE040
:108B3400019B04331B68084A934204D0074A9342BA
:108B440003D1012302E0002300E00323184602B00E
:108B5400704700BFDEC0ADDEFE011EF1FF011EF155
:108B640084B00190002303930CE0039B9B00019AC3
:108B740013441B68B3F1FF3F01D0002307E0039BBC
:108B840001330393039BB3F5806FEED3012318469F
:108B940004B0704782B003460A46ADF80630134667
:108BA400ADF80430BDF80620134913469B00134466
:108BB4009B000B4408331A88BDF804301344ADF805
:108BC4000430BDF806200C4913469B0013449B0057
:108BD4000B440A331A88BDF804301344ADF804304A
:108BE400BDF8043040F2FF32934294BF01230023C6
:108BF400DBB2184602B07047BC35002084B0019047
:108C040000910A2303930023ADF80A3027E0BDF84E
:108C14000A20174913469B0013449B000B4404335A
:108C24001B68009A9A4215D9BDF80A2010491346C8
:108C34009B0013449B000B4404331B6803F58053CF
:108C4400009A9A4206D200230393019BBDF80A209E
:108C54001A8008E0BDF80A300133ADF80A30BDF8D7
:108C64000A30012BD3D9039B184604B0704700BFC8
:108C7400BC35002000B589B0039002910192039B9A
:108C840003F580530693039B08330393029B02224C
:108C94001A80039B079332E006990798FFF7FAFEC0
:108CA40003468DF817309DF81730002B0AD1079B27
:108CB4009A68184B1B689A4213D9079B9B68154AFC
:108CC40013600EE0019B002B02D0019B01221A705D
:108CD4009DF81730022B04D1029B4FF480621A8056
:108CE40014E0029B1A88079B5B8813449BB20333EE
:108CF4009AB2029B1A800798FFF7C1FE0790069963
:108D04000798FFF7A5FE0346002BC5D109B05DF80F
:108D140004FB00BF1C35002082B001900091009B31
:108D24009B7D022B09D9019B1A89009BDB88134484
:108D34009BB203339AB2019B1A81019B5A89009B0F
:108D4400DB88D31A9BB2033B9AB2019B5A8100BFC2
:108D540002B0704700B583B0074B1B681946002367
:108D640000930823054A064802F0DAFB0346184636
:108D740003B05DF804FB00BFE4350020088F030056
:108D8400202D002000B585B00390039900230093A3
:108D94000823044A044802F0C3FB0346184605B0FE
:108DA4005DF804FB108F0300202D002000B585B072
:108DB40003460091ADF8063000238DF80F30BDF85E
:108DC40006300333ADF80A30BDF80A3040F2FD3204
:108DD400934201D909234AE00023ADF80C303BE06B
:108DE400BDF80C20244913469B0013449B000B44FC
:108DF4001B78002B2BD1BDF80A20BDF80C3011468E
:108E04001846FFF7C7FE0346002B20D001238DF838
:108E14000F30009BBDF80C201A80BDF80C201649B9
:108E240013469B0013449B000B440A331988BDF876
:108E34000C20BDF80A300B4498B20F4913469B002E
:108E440013449B000B440A3302461A8008E0BDF821
:108E54000C300133ADF80C30BDF80C30012BBFD908
:108E64009DF80F30002B01D0002300E007231846A3
:108E740005B05DF804FB00BFBC35002082B003469A
:108E84000A46ADF806301346ADF80430BDF80420A8
:108E94000D4913469B0013449B000B440A331A8864
:108EA400BDF80630D31A9BB2BDF80420033B98B238
:108EB400054913469B0013449B000B440A330246A6
:108EC4001A8000BF02B07047BC35002008B50121EC
:108ED400024801F0ADFD0346184608BD1C350020CC
:108EE40000B585B003460091ADF80630BDF8062004
:108EF400244913469B0013449B000B4404331B6812
:108F040003F580530293009B1B680393039B002B80
:108F140004D00398FFF7B3FD039026E0BDF80620C4
:108F2400184913469B0013449B000B4404331B68ED
:108F34000833039319E002990398FFF7ABFD034646
:108F4400022B10D0022B10DC002B02D0012B05D0F9
:108F54000BE0009B039A1A6001230EE00398FFF7CD
:108F64008EFD039001E0002307E002990398FFF7C8
:108F74006FFD0346002BDED10023184605B05DF8D3
:108F840004FB00BFBC35002000B585B00190009102
:108F9400019B5B681846FFF79BFD0346002B19D025
:108FA400019B1A89244B1B899A4213D1019B1A688D
:108FB400019B5B689B689A420CD1019B5B681946D4
:108FC4000098FFF71BFE0346002B0CBF0123002370
:108FD400DBB22CE0009B00221A8023E000230293E2
:108FE40010E0029B0393039B9A68019B1B689A42BF
:108FF40008D1029A019B5A600F4B1A89019B1A816E
:10900400012314E0009B1B8802AA11461846FFF7AF
:1090140067FF0346002BE4D1009B1B8801339AB2FF
:10902400009B1A80009B1B88012BD7D9002318466C
:1090340005B05DF804FB00BFEC35002000B587B037
:109044000390029101920093304B1B78DBB283F0C2
:109054000103DBB2002B01D0022353E0019B002B60
:1090640002D0009B002B48D105234BE0009B9B883A
:109074001946274A0B469B000B449B0013441B785C
:10908400002B33D124E0009B1B680593039B002B2A
:1090940006D0059B9A88039B1B889A4200D017E050
:1090A400029B002B06D0059B1A88029B1B889A42C0
:1090B40000D00DE0059B9A68019B1A60009B1A681A
:1090C400019B5A60134B1A89019B1A81002319E0F2
:1090D400009B9B88009A11461846FFF701FF034640
:1090E400002BD0D1009B00221A6000E000BF009B3F
:1090F4009B8801339AB2009B9A80009B9B88012B2A
:10910400B4D90A23184607B05DF804FBFC340020E8
:10911400BC350020EC35002000B585B00190084B2B
:109124000199184601F0DFFA03901C2200210398EC
:109134000FF081FB039B184605B05DF804FB00BFEC
:10914400AC35002000B583B00190044B019918465A
:1091540001F0E2FA00BF03B05DF804FBAC35002077
:1091640000B583B00190054B0199184601F0E8FA67
:109174000346184603B05DF804FB00BFAC3500207D
:1091840000B583B00190044B0199184601F0F1FA3F
:1091940000BF03B05DF804FBAC35002008B50A4BF2
:1091A4001B68002B04D1094940F27A2005F0ECFC3D
:1091B4000121054801F054FC0346002B14BF012390
:1091C4000023DBB2184608BD04350020908E03004E
:1091D40000B587B0002305930023ADF812300323B4
:1091E400ADF8103000238DF80F300023ADF80C30AB
:1091F400F3E0BDF80C301A03804BDB681344029390
:109204000298FFF789FC03468DF807309DF8073074
:10921400032B08D0032B00F3DA80002B65D0012B3D
:1092240000F09880D3E00298FFF79AFC0346002BE5
:109234003BD0734B1B68002B29D0BDF81220714919
:1092440013469B0013449B000B4402221A70BDF882
:1092540012206C4913469B0013449B000B440433B7
:10926400029A1A60BDF81220664913469B00134403
:109274009B000B44083302221A80634ABDF8123063
:109284005380BDF812300133ADF8123008E05C4A67
:10929400029B13605A4B02229A8001238DF80F30EF
:1092A400059B43F00103059392E0BDF81030013BA8
:1092B400ADF81030BDF81220524913469B001344F8
:1092C4009B000B440433029A1A60BDF812204D49E6
:1092D40013469B0013449B000B4403221A70BDF8F1
:1092E40012300133ADF8123072E0BDF81220454956
:1092F40013469B0013449B000B4400221A70BDF8D4
:109304001220404913469B0013449B000B44043332
:10931400029A1A60BDF8122013469B0013449B0066
:109324000833384A9918BDF8122013469B00134499
:109334009B001033334A13441A460298FFF79AFCF1
:10934400059B43F002030593BDF812300133ADF8D9
:1093540012303DE09DF80F30002B25D0BDF81220CF
:10936400284913469B0013449B000B4402221A70A5
:10937400BDF81220224B1968224813469B0013445F
:109384009B00034404331960BDF812201D491346A1
:109394009B0013449B000B44083302221A80BDF83F
:1093A40012300133ADF81230154A029B13600022CB
:1093B40016490298FFF75EFC114B9B88022B01D1E2
:1093C400042300E00823059A1343059300E000BF3B
:1093D400BDF80C300133ADF80C30BDF80C30022B65
:1093E4007FF607AFBDF81030012B01D80023059399
:1093F400059BDBB2184607B05DF804FB202D002066
:10940400E4350020BC350020EC350020E835002090
:1094140000B587B003900291039B02229A750299CA
:10942400039B1A1D002300930423074802F078F8D5
:109434000590059B002B01D1002300E00E23184664
:1094440007B05DF804FB00BF202D002000B587B0F5
:1094540003900291039B1B69002B01D0032200E0BF
:109464000122039B9A75029B08331946039B03F15F
:109474000C02002300930423064802F051F80590DF
:10948400059B002B01D1002300E00E23184607B0F2
:109494005DF804FB202D002000B587B003900291F5
:1094A400039B1B78032B01D1052200E00622039BBA
:1094B4009A75029B04331946039B03F108020023A7
:1094C40000930423064802F02BF80590059B002B1B
:1094D40001D1002300E00E23184607B05DF804FB19
:1094E400202D002000B587B003900B46ADF80A305C
:1094F40003990023009304230C4A0D4802F010F84A
:109504000590059B002B01D00E230BE0BDF80A202B
:10951400084913469B0013449B000B44103301225B
:109524001A700023184607B05DF804FB188F030077
:10953400202D0020BC35002000B589B0019002AB7D
:1095440000221A605A609A60019BDB6802930DF155
:10955400160202AB11461846FFF716FD0346002B10
:1095640012D0039B0693069B9A88019BDA80069B84
:109574001A88019B1A81039BBDF8162011461846D0
:10958400FFF7B0FF079001E00A230793079B1846F3
:1095940009B05DF804FB000000B587B00190019BA1
:1095A400981D02AA0D4B0021FFF748FD0590059B6D
:1095B400002B08D1039B094A928811461846FFF7ED
:1095C40091FF059004E00822002104480FF033F9CC
:1095D400059B184607B05DF804FB00BFFC3500206E
:1095E40000B587B003900291039B01229A75029BF8
:1095F4000C331846039B1A69039BDB889B000021EC
:1096040000910146064801F08BFF0590059B002B55
:1096140001D1002300E00E23184607B05DF804FBD7
:10962400202D002082B0184B1B8901339AB2164BAF
:109634001A81154B00225A80134B00221A730023FF
:10964400ADF8063018E0BDF80620104913469B001B
:1096540013449B000B441A78BDF80630002A0CBF53
:1096640001220022D1B2084A13440A469A72BDF874
:1096740006300133ADF80630BDF80630012BE2D9CF
:1096840000BF00BF02B07047EC350020BC3500209D
:1096940084B0019000238DF80F300023ADF80C3016
:1096A40031E0BDF80C301C4A13449B7A002B25D0C2
:1096B400BDF80C30184A134400229A72BDF80C20ED
:1096C400164913469B0013449B000B440C331B6840
:1096D400002B13D1BDF80C20104913469B001344F2
:1096E4009B000B4410331B78002B07D0019BBDF863
:1096F4000C201A8001238DF80F3008E0BDF80C30DF
:109704000133ADF80C30BDF80C30012BC9D99DF8EC
:109714000F30184604B07047EC350020BC350020EB
:1097240008B5084B05221A70074B02229A80064B93
:109734001B68194600230122044801F0D3FF0346A5
:10974400184608BDEC350020E4350020202D00200B
:1097540000B583B0164B5B88ADF80230BDF802202B
:10976400144913469B0013449B000B440C331B68A1
:10977400002B14D10E4B04221A70BDF802200D499F
:1097840013469B0013449B000B4404331B68194687
:1097940000230122084801F0A5FF019002E0FFF731
:1097A400BFFF0190019B184603B05DF804FB00BFA6
:1097B400EC350020BC350020202D002000B587B0FA
:1097C400104B5B680593104B1A680F4B9B889B00EA
:1097D40013440493059B5B880333ADF80E30094BA7
:1097E40003221A700499074B5A68BDF80E309B0087
:1097F40000200090054801F093FE0346184607B088
:109804005DF804FBEC350020E4350020202D002019
:1098140000B583B00A4B5B880A491846FFF760FB22
:109824000346002B03D0FFF7C9FF019002E0FFF7C6
:109834008FFF0190019B184603B05DF804FB00BF45
:10984400EC350020F035002008B50A4B06221A70CA
:10985400084B5B881946084A0B469B000B449B0047
:10986400134404331B681846FFF78CFA0346184662
:1098740008BD00BFEC350020BC35002008B5054B01
:1098840007221A70034B00225A60FFF763FA03465B
:10989400184608BDEC35002008B50D48FFF7F8FE62
:1098A400034683F00103DBB2002B0BD0094B0022EB
:1098B4001A70084B00225A80064B00225A6041F667
:1098C4001D5302E0FFF7A4FF0346184608BD00BF7E
:1098D400EE350020EC35002082B0094B5B68019323
:1098E400019B5B880333ADF80230064B9A88BDF8C0
:1098F400023013449AB2034B9A8000BF02B07047FF
:10990400EC350020E435002082B0184B1B6801932D
:10991400174B5B881946174A0B469B000B449B0068
:10992400134404331B68114A1360114B5B881946B6
:10993400104A0B469B000B449B0013440433019ACA
:109944001A600B4B5B881946084B9888094A0B46EA
:109954009B000B449B001344083302461A80034BBC
:1099640002229A8000BF02B0704700BFE435002095
:10997400EC350020BC35002008B51A4B1B78072BAA
:109984002CD801A252F823F0AD990200E19902000B
:10999400E1990200B9990200C5990200D199020027
:1099A400D1990200D9990200FFF73CFE0D4B012228
:1099B4001A7014E0FFF790FF0A4B02221A700EE0AF
:1099C400FFF7A2FF074B06221A7008E0054B072297
:1099D4001A7004E0034B01221A7000E000BF00BFBC
:1099E40008BD00BFEC35002000B587B001900091A0
:1099F4000F230593019B002B04D0624B00225A6075
:109A04000123BBE0009B1B79032B00F2AB8001A276
:109A140052F823F0299A0200379A0200C59A0200EC
:109A2400E59A0200009B01221A71FFF793F9059051
:109A34009BE000238DF813300023ADF810302BE0A9
:109A4400BDF81020504913469B0013449B000B445F
:109A54001B78022B1BD1BDF810204B4913469B00E9
:109A640013449B000B4400221A7001238DF8133019
:109A7400BDF81020444913469B0013449B000B443B
:109A840004331B681846FFF77DF9059008E0BDF81C
:109A940010300133ADF81030BDF81030012BCFD9A0
:109AA4009DF8133083F00103DBB2002B5CD0354BFF
:109AB40001221A70334B00225A6041F61D535DE0B7
:109AC400009B00221A71314B02229A802F4B1B6893
:109AD4001946002301222E4801F004FE059044E0BB
:109AE400009B00221A71294B1B681846FFF74AF99C
:109AF4000590284B5B88ADF80E30244B1B6802930D
:109B0400BDF80E20204913469B0013449B000B44D0
:109B140004331B681D4A1360BDF80E201A4913460E
:109B24009B0013449B000B440433029A1A60BDF853
:109B34000E20164B9888144913469B0013449B002F
:109B44000B44083302461A80104B02229A80BDF857
:109B54000E200D4913469B0013449B000B44002226
:109B64001A7002E000BF00E000BF059B002B04D088
:109B7400044B00225A600E2300E00023184607B06D
:109B84005DF804FBFC340020BC350020E4350020E3
:109B9400202D0020EC35002000B587B00190009105
:109BA400009B9B8A1A4613469B0013449B003A4A27
:109BB40013440493019B002B05D000990498FFF7EC
:109BC400ABF8012363E0049B5A68049B1B899B0048
:109BD40013440393009B9B7D062B4DD801A252F89E
:109BE40023F000BF2B9C02004F9C0200379C020014
:109BF400439C0200059C02005B9C0200759C0200D1
:109C0400264B00225A60009B9B69244A1360244916
:109C14002248FFF7B9F9034683F00103DBB2002BB6
:109C240001D00A2333E003990098FFF7F1FB059074
:109C340025E003990098FFF709FC05901FE00399BC
:109C44000098FFF7CDFC059019E003990098FFF701
:109C540023FC059013E0009B06229A750F4B5B686A
:109C64000F4A128811461846FFF73CFC059006E09F
:109C740041F61D53059302E00F23059300BF059B96
:109C8400002B03D000990498FFF746F8059B18466B
:109C940007B05DF804FB00BFBC350020043600208B
:109CA4001036002000B585B001900091019B002B77
:109CB40001D0012326E0009B1B79022B19D0022B33
:109CC4001BDC002B02D0012B08D016E0009B0222E3
:109CD4001A710098FFF730FC039012E00098FFF728
:109CE4005BFC0390039B0A2B0AD141F61D5303939B
:109CF40006E041F61D53039303E00F23039300E0B2
:109D040000BF039B184605B05DF804FB00B585B0A1
:109D14000190019B002B01D001233BE01F4B1B7BD7
:109D2400002B03D01D4B00221A7301E0FFF724FE21
:109D34001A4B1B78013B062B28D801A252F823F0BA
:109D4400619D0200699D0200719D0200799D0200DF
:109D5400919D0200819D0200899D0200FFF79CFDF8
:109D6400039016E0FFF754FD039012E0FFF726FD81
:109D740003900EE0FFF7ECFC03900AE0FFF764FDAC
:109D8400039006E0FFF77AFD039002E00F230393AC
:109D940000BF039B184605B05DF804FBEC350020BA
:109DA40000B589B001903F4B1B68002B05D13E489C
:109DB400FFF7D6F903463B4A13603A4B1B68002B66
:109DC40004D13A4940F2825004F0DEFE354B1B6860
:109DD4001B78013B052B2CD801A252F823F000BFBD
:109DE400FD9D02000D9E02000D9E02001D9E0200BC
:109DF4001D9E02002D9E02002A4B1B6819460198E5
:109E0400FFF7F2FD019017E0264B1B6819460198F5
:109E1400FFF7C2FE01900FE0224B1B681946019820
:109E2400FFF740FF019007E00198FFF76FFF0190F3
:109E340002E00F23019300BF019B002B2BD003AB47
:109E440000221A605A609A60DA601A61019B41F636
:109E54001D52934201D0019B00E000230493114B57
:109E64001B6803AA11461846FEF784FD03AB184687
:109E7400FEF760FD0B4B00221A60002301930A4891
:109E8400FFF77EF9FFF78AF9034683F00103DBB29B
:109E9400002B02D187E700BF00E000BF00BF09B07C
:109EA4005DF804FB1436002018360020908E030061
:109EB40008B50121054800F0A3FD0346002B02D19B
:109EC4000020FFF76DFF00BF08BD00BF0435002070
:109ED40000B583B00190019B5B681846FFF760FFF3
:109EE40000BF03B05DF804FB00B58BB00390029192
:109EF40001928DF803300023ADF824300023ADF82F
:109F04002630514B1B78DBB283F00103DBB2002B0C
:109F140001D0022393E0029B002B01D105238EE0A4
:109F2400029B1B884FF6FF72934203D0029B5B880F
:109F3400002B01D1042382E0029B5B681846FEF7E4
:109F4400ECFC034683F00103DBB2002B01D00323B6
:109F540075E0019B002B11D1029B9B68ADF8263064
:109F64000DF11A02BDF8263011461846FEF71EFF01
:109F74000890089B002B09D0089B60E0019B1B887C
:109F8400ADF81A30019B5B88ADF8263005AB184656
:109F9400FFF7C2F80790079B002B09D1BDF81A20E0
:109FA400BDF8263011461846FEF768FF082346E040
:109FB400079B9DF803201A70079B00229A75BDF831
:109FC4001A20079B9A82029B5A68079B1A61FEF724
:109FD4007DFF0246079BDA60029B1A88079B1A8161
:109FE400029B5A88079B9A80079BBDF82620DA803B
:109FF4009DF80330032B06D1079B04229A75039B1B
:10A004001A68079B9A61079BBDF824205A8105AB07
:10A014001846FFF797F8039B002B0DD0039B0022F3
:10A024005A60079BDA68039B1A60039B00229A72AA
:10A03400064B1A89039B1A81FFF73AFF002318463F
:10A044000BB05DF804FB00BFFC340020EC350020AD
:10A0540000B585B001900C4B1B68042B02D10C2376
:10A0640003930BE0084B1B680849019A41F823202D
:10A074000121054800F0DCFC00230393039B1846F0
:10A0840005B05DF804FB00BF083500200C35002046
:10A0940084B040F6F8731B68B3F1FF3F02D10F4B55
:10A0A4001B6802E040F6F8731B6803934FF080537B
:10A0B4001B6902934FF080535B690193039BB3F1D7
:10A0C400FF3F04D1019B029A02FB03F300E0039BD0
:10A0D4000093009B184604B0704700BF1410001092
:10A0E40000B583B04FF440530193FFF7D1FF03460B
:10A0F400054A1361044B1A69019BD31A024AD360BF
:10A1040000BF03B05DF804FB202D002008B5FFF765
:10A11400E7FF00220349044801F0BAF90346184650
:10A1240008BD00BFA4920300202D002008B50448F8
:10A134001C238C22034900F08FFA00BF08BD00BF26
:10A14400AC3500202035002000B58BB002AB0022D6
:10A154001A605A609A60DA601A61414B1B78DBB26C
:10A16400002B05D002AB1846FEF7E4FB002373E096
:10A174003C4800F08DFC0346002B01D000236BE02B
:10A18400FFF7C4FF0990099B002B01D0099B63E0F2
:10A19400FFF7CCFFFFF71CF803468DF823309DF83A
:10A1A4002330062B07D0062B11DC002B01D0022B09
:10A1B4000DD10B2350E02A4B01221A70284B0022A8
:10A1C4005A6002AB1846FEF7B5FB002344E000BF1B
:10A1D40001AB1846FEF7A0FF0790079B002B01D1A7
:10A1E400082339E0079B01221A709DF82330013BB4
:10A1F4000A2B29D801A252F823F000BF2DA2020095
:10A204004DA202002DA202004DA2020045A20200AE
:10A214004DA2020045A202004DA2020035A2020096
:10A224003DA2020035A20200079B00221A710CE035
:10A23400079B03221A7108E0079B02221A7104E0AB
:10A24400079B01221A7100E000BF01AB1846FEF71C
:10A2540079FFFFF72DFE002318460BB05DF804FBD1
:10A26400FC3400200035002000B585B00190009139
:10A27400019B002B02D0009B002B01D1052329E078
:10A284000DF10A0319460198FEF77EFE0346002BE2
:10A294001FD0019B5B680393BDF80A301A4613462E
:10A2A4009B0013449B0008330C4A134404330121DC
:10A2B400184600F0BDFB009B039A1A60019B5B6883
:10A2C40003F10C02009B5A60019B01229A72002345
:10A2D40000E00A23184605B05DF804FBBC350020F5
:10A2E40000B585B00190019B002B01D1052339E015
:10A2F4000DF10A0319460198FEF746FE0346002BAA
:10A304002DD0BDF80A301946184A0B469B000B4461
:10A314009B0013440C331B68002B1DD0019B9B7ABC
:10A32400002B19D0BDF80A301A46104913469B0079
:10A3340013449B000B440C331B68591E0B481346F3
:10A344009B0013449B0003440C331960019B0022BF
:10A354009A720023039304E00623039301E00A2383
:10A364000393039B184605B05DF804FBBC3500203D
:10A3740000B583B001900091022300220099019856
:10A38400FFF7B2FD0346184603B05DF804FB00B5C1
:10A3940083B001900091019B002B01D1052306E0BD
:10A3A4000323002200990198FFF79EFD03461846F7
:10A3B40003B05DF804FB000000B585B00346ADF8BA
:10A3C4000630184B1B78DBB283F00103DBB2002BA1
:10A3D40001D0022322E0BDF806304FF6FF7293420B
:10A3E40001D104231AE002AB1846FEF795FE039050
:10A3F400039B002B01D1082310E0039B05221A7054
:10A40400039B01221A71039BBDF80620DA8002AB7C
:10A414001846FEF797FEFFF74BFD0023184605B0DC
:10A424005DF804FBFC34002000B583B0144B1B78AA
:10A43400DBB283F00103DBB2002B01D002231AE06C
:10A444006B461846FEF768FE0190019B002B01D174
:10A45400082310E0019B06221A706B461846FEF78B
:10A4640071FE084B1B78002B02D0064B01221A7395
:10A47400FFF71EFD0023184603B05DF804FB00BF80
:10A48400FC340020EC35002000B585B00292019325
:10A494000346ADF80E300B46ADF80C3003A90DF1B0
:10A4A4000E00019B029AFEF7C9FD0346184605B04B
:10A4B4005DF804FB00B585B0034602910192ADF846
:10A4C4000E300DF10E01019B029A0020FEF7B6FD3D
:10A4D4000346184605B05DF804FB00B585B0034695
:10A4E40002910192ADF80E300DF10E00019B029A1B
:10A4F4000021FEF7A3FD0346184605B05DF804FBF2
:10A5040082B001900091019B002B02D0009B002B94
:10A5140001D1052304E0019B1A68009B1A60002303
:10A52400184602B0704786B001900091019B53E831
:10A53400011F8AB2D88902449889824228BF121A1C
:10A544001889824202BFBFF32F8F002307E0C2EABB
:10A55400010243E801200028E9D14FF001038DF8FE
:10A564000F30059002910492029A009B1A609DF8A4
:10A574000F30DBB2184606B0704784B001900199E1
:10A5840051E8013FC3EA034341E80132002AF7D10D
:10A594000392029300BF04B0704786B0019000910B
:10A5A400019B53E8021F1FFAA1F2D888824202BF1E
:10A5B400BFF32F8F00230DE0D8890244988982428B
:10A5C40028BF121AC1EA024243E802200028E8D157
:10A5D4004FF001038DF80F30059002910492029A16
:10A5E400009B1A609DF80F30DBB2184606B0704726
:10A5F40084B00190019951E8023FC3EA234341E842
:10A604000232002AF7D10392029300BF04B07047CC
:10A6140086B00190019B53E8021FDA88B1EB314FF9
:10A624004FF0000017BF89B242EA024241EA0242F7
:10A6340004E05968B1EB314F08BF012043E802211F
:10A644000029E8D18DF80F00059104929DF80F3090
:10A65400DBB2184606B0704784B0039002911146ED
:10A664001A460B46ADF806301346ADF80430029B8B
:10A67400002B01D10E231FE0BDF80630BDF80420E5
:10A68400B3FBF2F102FB01F29B1A9BB2002B01D047
:10A69400092311E0039B029A1A60039B00225A606B
:10A6A400039B00229A60039BBDF806209A81039BBA
:10A6B400BDF80420DA810023184604B0704700B5C1
:10A6C40085B001900198FFF7A3FF03468DF80F3082
:10A6D4009DF80F30002B01D0002300E01123184611
:10A6E40005B05DF804FB00B585B001900091009BB6
:10A6F40019460198FFF717FF0346002B07D0019B6B
:10A704001B68009A128813440393039B00E0002300
:10A71400184605B05DF804FB00B583B001900091C4
:10A72400009B1A88009B5B889A4204D10198FFF72A
:10A7340024FF012300E00023184603B05DF804FB66
:10A7440000B585B001900091009B19460198FFF770
:10A7540024FF0346002B07D0019B1B68009A5288F4
:10A7640013440393039B00E00023184605B05DF8EF
:10A7740004FB00B583B001900091009B1A88009BF4
:10A784005B889A4204D10198FFF732FF012300E06D
:10A794000023184603B05DF804FB00B585B00190B2
:10A7A4000091009B5B099B00019A1A44009B03F0F3
:10A7B4001F03012101FA03F31946104600F0D8F8EB
:10A7C400039000BF05B05DF804FB00B583B00190B1
:10A7D4000091009B5B099B00019A1A44009B03F0C3
:10A7E4001F03012101FA03F31946104600F0A8F8EB
:10A7F4000246009B03F01F0322FA03F303F0010354
:10A80400002B14BF01230023DBB2184603B05DF80C
:10A8140004FB00B585B001900091009B5B099B008F
:10A82400019A1A44009B03F01F03012101FA03F368
:10A83400DB431946104600F0CBF8039000BF05B087
:10A844005DF804FB82B001900091009B5B099B00C2
:10A85400019A13441A68009B03F01F0322FA03F3BE
:10A8640003F00103002B14BF01230023DBB21846BD
:10A8740002B0704700B58BB001900091002309939A
:10A884003BE0099B9B00019A13441B68DB4306933E
:10A89400069B93FAA3F30593059BB3FA83F30893FA
:10A8A40023E0099B5B01089A13440793079A009BD2
:10A8B4009A421ED207990198FFF787FF034683F057
:10A8C4000103DBB2002B01D0079B1EE0099B9B0018
:10A8D400019A13441B68DB430493049B93FAA3F388
:10A8E4000393039BB3FA83F30893089B1F2BD8D9D4
:10A8F40000E000BF099B01330993009B013B5B0906
:10A904000133099A9A42BCD3009B18460BB05DF8F8
:10A9140004FB10B487B001900091019B009A53E8A6
:10A92400004F104643E8000191F0000FF7D1059461
:10A9340004900391059B184607B05DF8044B7047DB
:10A9440010B487B001900091019B009A53E8004F26
:10A9540044EA020043E8000191F0000FF6D10594A7
:10A9640004900391059B184607B05DF8044B7047AB
:10A9740010B487B001900091019B009A53E8004FF6
:10A9840044EA020043E8000191F0000FF6D1059477
:10A9940004900391049B184607B05DF8044B70477C
:10A9A40010B487B001900091019B009A53E8004FC6
:10A9B40004EA020043E8000191F0000FF6D1059487
:10A9C40004900391059B184607B05DF8044B70474B
:10A9D40010B487B001900091019B009A53E8004F96
:10A9E40004EA020043E8000191F0000FF6D1059457
:10A9F40004900391049B184607B05DF8044B70471C
:10AA040010B487B001900091019B009A53E8004F65
:10AA140004EB020043E8000191F0000FF6D1059425
:10AA240004900391059B184607B05DF8044B7047EA
:10AA340010B487B001900091019B009A53E8004F35
:10AA440004EB020043E8000191F0000FF6D10594F5
:10AA540004900391049B184607B05DF8044B7047BB
:10AA640010B487B001900091019B009A53E8004F05
:10AA7400A4EB020043E8000191F0000FF6D1059425
:10AA840004900391049B184607B05DF8044B70478B
:10AA940000B583B0019001210198FFF751FF0346EF
:10AAA400184603B05DF804FB00B583B001900121A2
:10AAB4000198FFF75DFF0346184603B05DF804FBF9
:10AAC40000B583B0019000210198FFF769FF0346A8
:10AAD400184603B05DF804FB00B583B001900B4643
:10AAE4008DF80330019B002B03D10849E82004F0C2
:10AAF4004BF8019BDA689DF803300199098A01FB40
:10AB040003F31344184603B05DF804FB1C8F0300E1
:10AB140000B583B001900091019B002B03D108493B
:10AB2400F52004F031F8009B019AD2689B1A019A2F
:10AB3400128AB3FBF2F3DBB2184603B05DF804FBF0
:10AB44001C8F030000B585B00190019B002B01D13F
:10AB54000E234CE0019B1B68002B03D12649FF20E8
:10AB640004F012F8019B5B68002B04D122494FF4D6
:10AB7400807004F009F8019B9B68002B04D11E49E6
:10AB840040F2011004F000F8019BDB68002B04D1B3
:10AB940019494FF4817003F0F7FF019B1B8A002BC6
:10ABA40004D1154940F2031003F0EEFF019B9A68AB
:10ABB400019B5B68D31A8DF80F30019B1B68019AC7
:10ABC40052681A6007E0019B1A681368591C1160E7
:10ABD4009DF80F201A709DF80F305A1E8DF80F2023
:10ABE400002BF0D1019B1B6800221A710023184628
:10ABF40005B05DF804FB00BF1C8F030000B585B0F1
:10AC04000190019B002B04D11F494FF4927003F073
:10AC1400BBFF0023039300238DF80A300DF10A03D0
:10AC24001846FDF72DFE019B1B681A68019B5B68A3
:10AC34009A421FD9019B1B681A68013A1A601B6863
:10AC44001B7819460198FFF747FF0390019B9A6808
:10AC5400019B1B681B68D31A8DF80B30019B1B6882
:10AC64001B799DF80B209A4204D9019B1B689DF81F
:10AC74000B201A719DF80A301846FDF717FE039B46
:10AC8400184605B05DF804FB1C8F030010B584B0B2
:10AC940001900091019B002B04D1154940F247100B
:10ACA40003F072FF009B002B04D111494FF4A470F0
:10ACB40003F06AFF009B039300238DF80B300DF122
:10ACC4000B031846FDF7DCFD019B1B681C68621C26
:10ACD4001A6003990198FFF71BFF034623709DF840
:10ACE4000B301846FDF7E2FD00BF04B010BD00BFF5
:10ACF4001C8F030000B583B00190019B002B03D18E
:10AD04000C49312003F040FF019B9B68002B0CD0C1
:10AD1400019B5B69019A1069019A1168019A926812
:10AD24009847019B00229A6000E000BF03B05DF8E1
:10AD340004FB00BFA08F03000EB400B584B00190E3
:10AD4400019B002B03D11849422003F01DFF019BF6
:10AD54005B69002B03D11449432003F015FF019BC9
:10AD64001B68002B03D11049442003F00DFF019B05
:10AD74005B68002B03D10C49452003F005FF059BBC
:10AD8400002B0AD00023039306AB039303AB1A46AC
:10AD94000599019800F0B8F900E000BF04B05DF82F
:10ADA40004EB03B0704700BFA08F030000B583B06D
:10ADB40001900B468DF803309DF803300A2B03D124
:10ADC4000D210198FFF7F2FF019B1A68019B9B6814
:10ADD400581C0199886013449DF803201A70019B44
:10ADE4009A68019B5B689A4202D30198FFF782FF3D
:10ADF40000BF03B05DF804FB00B587B00390029177
:10AE04000192009300230593009B03F00103002BA0
:10AE140024D00BE0029B01330293059B013305937D
:10AE24009DF8133019460398FFF7C0FF029B1B7867
:10AE34008DF813309DF81330002BEBD106E0019B05
:10AE4400013B019320210398FFF7B0FF019A059B72
:10AE54009A422ED9019B002BF1D12AE0029B002BB0
:10AE64000BD002980DF03CFD059006E0019B013BE0
:10AE7400019320210398FFF799FF019A059B9A42B9
:10AE84000FD9019B002BF1D10BE0029B01330293FC
:10AE9400059B013305939DF8133019460398FFF77A
:10AEA40085FF029B1B788DF813309DF81330002B1F
:10AEB400EBD100BF07B05DF804FB000000B589B01A
:10AEC4000390029101920093029B0793012306933E
:10AED40007E0079A019BB2FBF3F30793069B013348
:10AEE4000693079A019B9A42F3D2009A069B9A42D0
:10AEF40001D9009B06930B9B03F00103002B22D185
:10AF04000A9B002B1FD00B9B03F00203002B06D0DF
:10AF1400009B002B03D130238DF8173002E020234F
:10AF24008DF8173008E00A9B013B0A939DF817300F
:10AF340019460398FFF73AFF0A9B002B03D0069AA1
:10AF44000A9B9A42EFD301230793009B012B03D959
:10AF5400009B013B009309E0029A079BB2FBF3F3C9
:10AF64000493049A019B9A4200D205E0079B019A3C
:10AF740002FB03F30793E8E7029A079BB2FBF3F3A0
:10AF84000493049B079A02FB03F3029AD31A0293D5
:10AF9400154A049B13441B7819460398FFF706FFD0
:10AFA400079A019BB2FBF3F30793079B002BE3D1B2
:10AFB4000B9B03F00103002B11D00A9B002B0ED036
:10AFC40006E00A9B013B0A9320210398FFF7EEFE5B
:10AFD4000A9B002B03D0069A0A9B9A42F1D300BF26
:10AFE40009B05DF804FB00BF9890030000B589B078
:10AFF4000590049103920293049B002BB8BF5B421B
:10B0040006930123079307E0039B069A92FBF3F34D
:10B014000693079B01330793039B069A9A42F3DA3C
:10B02400029A079B9A4201D9029B07930A9B002B21
:10B034000AD0049B002B04DB0B9B03F00403002BBE
:10B0440002D00A9B013B0A930B9B03F00203002BE3
:10B0540002D0029B002B16D00B9B03F00103002BA4
:10B0640011D10A9B002B0ED006E00A9B013B0A93E8
:10B0740020210598FFF79AFE0A9B002B03D0079A1C
:10B084000A9B9A42F1D3049B002B07DA049B5B4290
:10B0940004932D210598FFF789FE08E00B9B03F02C
:10B0A4000403002B03D02B210598FFF77FFE0B9B95
:10B0B40003F00203002B19D00B9B03F00103002BB8
:10B0C40014D1029B002B11D10A9B002B0ED006E059
:10B0D4000A9B013B0A9330210598FFF767FE0A9B00
:10B0E400002B03D0079A0A9B9A42F1D304990B9B35
:10B0F40001930A9B0093029B039A0598FFF7DEFED7
:10B1040000BF09B05DF804FB00B58FB00590049151
:10B114000392059B002B04D1B6494FF4A27003F0AF
:10B1240033FD059B5B69002B04D1B2494FF4A37036
:10B1340003F02AFD059B1B68002B04D1AD4940F2A6
:10B14400471003F021FD059B5B68002B04D1A9493E
:10B154004FF4A47003F018FD049B002B00F09381BE
:10B16400049B1B788DF83730049B013304939DF8BE
:10B174003730002B00F07E819DF83730252B40F0CE
:10B184006D8100230A9301230C93049B1B788DF893
:10B1940037309DF83730302B0DD0302B1BDC2B2B68
:10B1A40011D02D2B17D10A9B43F001030A93049B62
:10B1B4000133049312E00A9B43F002030A93049BB5
:10B1C400013304930AE00A9B43F004030A93049BAB
:10B1D4000133049302E000230C9300BF0C9B002B6B
:10B1E400D3D1002309939DF837302A2B0CD1039B2C
:10B1F4001B68191D039A11601B68099A134409936B
:10B20400049B013304931AE0049B1B788DF83730B8
:10B214009DF837302F2B12D99DF83730392B0ED8A3
:10B22400049B01330493099A13469B0013445B0067
:10B234001A469DF837301344303B0993D3E7002373
:10B244000B93049B1B788DF837309DF837302E2BE9
:10B254001DD1049B01330493049B1B788DF8373074
:10B264009DF837302F2B12D99DF83730392B0ED853
:10B27400049B013304930B9A13469B0013445B0015
:10B284001A469DF837301344303B0B93E4E7049B94
:10B294001B788DF837309DF837306C2B03D09DF830
:10B2A4003730682B07D1049B01330493049B1B782C
:10B2B4008DF83730EFE79DF83730252B00F0C48048
:10B2C400252BC0F2C680782B00F3C380582BC0F224
:10B2D400C080583B202B00F2BC8001A252F823F01E
:10B2E400D3B3020057B4020057B4020057B40200AB
:10B2F40057B4020057B4020057B4020057B4020016
:10B3040057B4020057B4020057B4020069B30200F4
:10B314008BB3020057B4020057B4020057B40200C2
:10B3240057B402008BB3020057B4020057B40200B2
:10B3340057B4020057B4020057B4020057B40200D5
:10B3440019B4020057B4020057B40200FDB302005E
:10B3540057B40200AFB3020057B4020057B402005E
:10B36400D3B30200039B1B68191D039A11601B6869
:10B374000C930C9B8DF81F309DF81F3019460598CF
:10B38400FFF714FD66E0039B1B68191D039A116007
:10B394001B680C930A9B0193099B00930B9B0A2245
:10B3A4000C990598FFF722FE54E0039B1B68191DB6
:10B3B400039A11601B680C930C990A9B0193099BD7
:10B3C40000930B9B0A220598FFF778FD42E0039B4C
:10B3D4001B68191D039A11601B680C930C990A9B36
:10B3E4000193099B00930B9B10220598FFF766FDC0
:10B3F40030E000BF18900300039B1B68191D039ADB
:10B4040011601B6808930A9B099A08990598FFF72D
:10B41400F3FC1FE0039B1B68191D039A11601B6852
:10B424000C9330210598FFF7C1FC78210598FFF7AC
:10B43400BDFC0C99002301930823009308231022D8
:10B444000598FFF73BFD05E025210598FFF7AEFCC5
:10B4540000E000BF049B0133049305E09DF83730FE
:10B4640019460598FFF7A2FC049B1B78002B7FF478
:10B4740077AE00E000BF059B1B7B002B04D0059832
:10B48400FFF738FC00E000BF0FB05DF804FB00BF1D
:10B4940000B587B0059004910392059B002B10D151
:10B4A400194A1A4BD31ADB081B0443F00100184A4B
:10B4B40018490E2300930B461749FBF734FC0E235F
:10B4C4001DE0049B002B10D10F4A104BD31ADB084C
:10B4D4001B0443F00100114A0E490E2300930B464E
:10B4E4000D49FBF720FC0E2309E0059B049A1A6022
:10B4F400059B1B681B6803990598984703461846E3
:10B5040007B05DF804FB00BF188A0300D889030064
:10B51400B89003005C920300C0900300EC90030019
:10B5240010B586B00590049103920293059B002BFD
:10B5340010D1604A604BD31ADB081B0443F00100AE
:10B544005E4A5F490E2300930B465E49FBF7EBFB13
:10B554000E23ABE0039B002B10D1564A564BD31A53
:10B56400DB081B0443F00100574A55490E2300939E
:10B574000B465449FBF7D7FB0E2397E0059B1B684A
:10B58400002B10D14B4A4C4BD31ADB081B0443F05D
:10B5940001004E4A4A49082300930B464949FBF7E8
:10B5A400C2FB082382E0029B002B10D1414A424B8C
:10B5B400D31ADB081B0443F00100454A4049092320
:10B5C40000930B463F49FBF7AEFB09236EE0059B56
:10B5D4005B685A68029BB3FBF2F102FB01F29B1A0F
:10B5E400002B10D0334A344BD31ADB081B0443F02E
:10B5F4000100384A3249092300930B463149FBF7CD
:10B6040092FB092352E0049800F01EF90346002B34
:10B6140010D1284A284BD31ADB081B0443F001003D
:10B624002D4A2749102300930B462649FBF77BFB41
:10B6340010233BE0039B184600F006F90346002B59
:10B6440010D11C4A1C4BD31ADB081B0443F0010025
:10B65400224A1B49102300930B461A49FBF763FB4C
:10B66400102323E0029A0499059800F0D3F80346C6
:10B67400002B10D10F4A104BD31ADB081B0443F0E4
:10B684000100174A0E49102300930B460D49FBF79E
:10B694004AFB10230AE0059B1B68DC68089B0093A7
:10B6A400029B039A04990598A0470346184606B0DE
:10B6B40010BD00BF188A0300D8890300B8900300A6
:10B6C40070920300C09003004C910300F4900300B7
:10B6D40008910300549103008091030098910300A2
:10B6E400BC91030010B586B00590049103920293B7
:10B6F400059B002B10D13E4A3E4BD31ADB081B049A
:10B7040043F001003C4A3D490E2300930B463C495B
:10B71400FBF709FB0E2368E0059B1B68002B10D187
:10B72400334A344BD31ADB081B0443F00100354A77
:10B734003249082300930B463149FBF7F4FA0823F6
:10B7440053E0039B002B10D1294A2A4BD31ADB0860
:10B754001B0443F001002C4A2849092300930B469B
:10B764002749FBF7E0FA09233FE00499059800F024
:10B7740078F80346002B10D11D4A1E4BD31ADB0860
:10B784001B0443F00100214A1C49102300930B467B
:10B794001B49FBF7C8FA102327E0059B5B681B686D
:10B7A400039A02FB03F31A460499059800F032F851
:10B7B4000346002B10D10E4A0E4BD31ADB081B0490
:10B7C40043F00100124A0D49102300930B460C4923
:10B7D400FBF7A9FA102308E0059B1B681C69029B70
:10B7E400039A04990598A0470346184606B010BD6D
:10B7F400188A0300D8890300B890030084920300D8
:10B80400C0900300F490030008910300E491030046
:10B814000C92030084B0039002910192039BDB68B5
:10B82400029A9A4209D3029A019B13445A1E039B1B
:10B834001B699A4201D8012300E0002303F00103AD
:10B84400DBB2184604B0704782B00190019B03F04C
:10B854000303002B0CBF01230023DBB2184602B004
:10B86400704782B001900091019B5B681B685A1E6F
:10B87400009B1340002B0CBF01230023DBB21846AE
:10B8840002B0704729DF704700BF184628DF7047B1
:10B8940000BF184600B589B001900091019B1B6858
:10B8A4009B68002B35D002AB00221A605A609A6064
:10B8B400DA601A615A61009B0393019B9B680793AA
:10B8C400019B1B79002B02D0012B0DD01AE0012320
:10B8D4008DF80830019B1B690493019BDB68059379
:10B8E400019B5B6906930DE002238DF80830019BF0
:10B8F400DB684FF4805202FB03F30493019B5B6902
:10B90400069300BF019B1B689B6802AA10469847D8
:10B9140000E000BF09B05DF804FB00B587B00190FA
:10B92400019B5A69019B9B69D31AB3F5805F28BFB9
:10B934004FF4805305930422059BB3FBF2F3012BD0
:10B9440038BF01230593019B1A69019B9B6913442A
:10B954000493019BDB681A46019B9B691344039380
:10B96400059A03990498FFF78DFF0346184607B01C
:10B974005DF804FB00B583B00190019BDA68019B7C
:10B984001B6913441846FFF781FF0346184603B0AA
:10B994005DF804FB08B5034B03491846FEF7E9FEBE
:10B9A40000BF08BDA8360020D036002008B5084BDB
:10B9B40008491846FEF7C4FE0346074A1360064BBF
:10B9C4001B68002B14BF01230023DBB2184608BDFB
:10B9D400A8360020D0360020CC36002000B583B035
:10B9E4002A4B1B7A002B0BD1FFF7E0FF034683F0B1
:10B9F4000103DBB2002B03D0244B00225A6042E047
:10BA0400224B02221A72224B1B681B79002B02D094
:10BA1400012B07D00DE01E4B1B681846FFF77DFF76
:10BA2400019009E01A4B1B681846FFF7A3FF019029
:10BA340002E00323019300BF019B002B03D0019B71
:10BA4400112B0CD00FE0114B1B7C83F00103DBB2F4
:10BA5400002B17D00021022000F060F912E00B4BFC
:10BA640001221A720FE00A4B1B6803211846FFF7E4
:10BA740011FF064B00221A72044B00225A60FFF792
:10BA840089FF00E000BF03B05DF804FBB836002076
:10BA9400CC36002008B50848FEF7FAFF0346002B11
:10BAA40008D1064B5B7C83F00103DBB2002B01D091
:10BAB400FFF794FF00BF08BDBC360020B836002055
:10BAC40084B001901B4B0022DA60019B1B79002B90
